:020000040800F2
:10000000D00A002029020008A93F0008AD3B0008E3
:10001000313F00083508000875490008000000005D
:1000200000000000000000000000000091430008F4
:10003000F90B0008000000008D4100089343000800
:10004000430200084302000843020008430200087C
:10005000430200084302000843020008430200086C
:10006000430200084302000843020008430200085C
:10007000350B000843020008430200084302000851
:100080004302000843020008430200084508000834
:100090003908000843020008430200084302000830
:1000A000430200084302000843020008430200081C
:1000B000430200084302000843020008430200080C
:1000C00043020008430200084302000843020008FC
:1000D000430200084302000843020008694900087F
:1000E00043020008430200084302000843020008DC
:1000F00043020008430200084302000843020008CC
:1001000043020008430200084302000843020008BB
:100110004302000843020008454400084302000867
:10012000430200084302000843020008430200089B
:10013000430200084302000843020008430200088B
:10014000430200084302000843020008430200087B
:10015000430200084302000843020008430200086B
:10016000430200084302000843020008430200085B
:100170004302000843020008430200080000000098
:10018000430200084302000800F002F800F03CF8C7
:100190000AA090E8000C82448344AAF10107DA45E2
:1001A00001D100F031F8AFF2090EBAE80F0013F0F8
:1001B000010F18BFFB1A43F001031847A04E0000BF
:1001C000C04E0000103A24BF78C878C1FAD8520750
:1001D00024BF30C830C144BF04680C6070470000C1
:1001E0000023002400250026103A28BF78C1FBD840
:1001F000520728BF30C148BF0B6070471FB504F0DD
:10020000F5FE1FBD10B510BD00F001F91146FFF756
:10021000F5FF04F0D8FB00F01FF903B4FFF7F2FF7D
:1002200003BC00F027F9000009488047094800474F
:10023000FEE7FEE7FEE7FEE7FEE7FEE7FEE7FEE796
:10024000FEE7FEE704480549054A064B70470000F3
:100250003544000889010008D0040020D00A00209D
:10026000D0060020D006002053EA020C00F069807E
:100270002DE9F04B4FF00006002B1FBFB3FA83F5BA
:1002800003FA05F424FA05F65E4012BF1643B2FAEB
:1002900082F502FA05F4C5F120051EBF22FA05FC1D
:1002A00044EA0C04203556EA044C4FEA144418BFC3
:1002B000641C4FF000084FF00009904271EB030CF2
:1002C00039D3002919BFB1FA81F701FA07F6B0FA5C
:1002D00080F700FA07F6C7F120071EBF20FA07FCD7
:1002E00046EA0C062037B6FBF4FCA7EB0507103FE7
:1002F00007F01F0BCBF120060CFA0BFB2CFA06F6CD
:1003000044BFB3460026202FA4BF5E464FF0000B2B
:100310005BEA060C08BF4FF0010B19EB0B09ABFBB6
:10032000027C48EB0608C01B06FB02CC0BFB03CC8F
:1003300071EB0C01C1E70B46024641464846BDE859
:10034000F08B13B54FF000004FF00001AFF30080C9
:10035000BDE81C40704710B5203AC0F00B80B1E8F2
:100360001850203AA0E81850B1E81850A0E81850EA
:10037000BFF4F5AF5FEA027C24BFB1E81850A0E8F3
:10038000185044BF18C918C0BDE810405FEA827C0D
:1003900024BF51F8043B40F8043B08BF7047D20724
:1003A00028BF31F8023B48BF11F8012B28BF20F8C5
:1003B000023B48BF00F8012B70474FF0000200B528
:1003C000134694469646203922BFA0E80C50A0E878
:1003D0000C50B1F12001BFF4F7AF090728BFA0E826
:1003E0000C5048BF0CC05DF804EB890028BF40F8F2
:1003F000042B08BF704748BF20F8022B11F0804F34
:1004000018BF00F8012B704770477047704775465A
:1004100000F02CF8AE4605006946534620F0070070
:10042000854618B020B5FFF70DFFBDE820404FF01E
:1004300000064FF000074FF000084FF0000B21F0CE
:100440000701AC46ACE8C009ACE8C009ACE8C0099B
:10045000ACE8C0098D46704710B50446AFF3008084
:100460002046BDE81040FFF7D8BE000000487047A6
:100470007004002001491820ABBEFEE726000200F0
:100480007047000001221021014801F011BE000058
:100490000000024000221021014801F009BE0000C6
:1004A00000000240F0B585B0142225496846FFF7E8
:1004B00052FF002000F018F9962004F06DFA002099
:1004C00000F012F9962004F067FAB6217E2000F0C1
:1004D00071F9502001F02CFC002000F005F9962065
:1004E00004F05AFA002000F0FFF80446962004F0C9
:1004F00053FA1E2C02D0FF2005B0F0BD00246D463B
:1005000004EB44067719A85D797800F053F996203A
:1005100004F042FAA85D00F0E7F80646962004F0E1
:100520003BFA7878B04204D004EB44002844807849
:10053000E2E7641CE4B2062CE2D30020DCE7000012
:1005400034500008F0B585B014216846FFF735FF38
:10055000154E01221021304601F0AAFD134F012251
:100560001146384601F0A4FD01241020CDE9000415
:10057000022569463046CDE9024501F0EBFB30200B
:1005800000904FF40410CDE901046946084801F0D9
:10059000E1FB0094694638460194CDE9024501F03B
:1005A000D9FB05B0F0BD000000000240000402408D
:1005B0000008024001221146014801F079BD000007
:1005C0000004024000220121014801F071BD000039
:1005D00000040240F0B585B0142225496846FFF7B3
:1005E000BAFE002000F0C8F8962004F0D5F90020EB
:1005F00000F0C2F8962004F0CFF9B621142000F0E4
:10060000F9F8502001F094FB002000F0B5F8962096
:1006100004F0C2F9002000F0AFF80446962004F080
:10062000BBF90F2C02D0FF2005B0F0BD00246D46B1
:1006300004EB44067719A85D797800F0DBF8962082
:1006400004F0AAF9A85D00F097F80646962004F099
:10065000A3F97878B04204D004EB440028448078B1
:10066000E2E7641CE4B2062CE2D30020DCE70000E1
:100670004850000810B5FFF765FF054900200860E5
:10068000FFF710FF0446FFF7A5FF204310BD000051
:1006900034440140FEB506460624FFF7FBFE9220D7
:1006A0008DF804003725012302AA01A90D48009501
:1006B00002F006FC012302AA01A90A48009502F0F3
:1006C000FFFB00BFC4F106008219012301A9054800
:1006D000009502F0F5FB641E14F0FF04F2D1FFF761
:1006E000D1FEFEBD900000203EB50446FFF7D2FECD
:1006F00044F080008DF808003724012301AA02A9E4
:100700000B48009402F0DCFB012301AA02A908486F
:10071000009402F0D5FB012301AA02A90448009429
:1007200002F0CEFBFFF7AEFE9DF804003EBD0000D8
:1007300090000020FEB505460624FFF743FF822007
:100740008DF804003726012302AA01A90948009662
:1007500002F0B6FBC4F106004219012301A90548C5
:10076000009602F0ADFB641E14F0FF04F2D1FFF717
:1007700021FFFEBD900000203EB50446FFF722FF9A
:1007800044F080008DF808003724012301AA02A953
:100790000748009402F094FB012301AA02A904482F
:1007A000009402F08DFBFFF705FF9DF804003EBDAD
:1007B000900000203EB50C460546FFF76BFE05F0A5
:1007C0007F008DF804003725012302AA01A90848FB
:1007D000009502F075FB8DF80440012302AA01A9DF
:1007E0000348009502F06CFBFFF74CFE00203EBD75
:1007F000900000203EB50C460546FFF7E3FE05F0ED
:100800007F008DF804003725012302AA01A90848BA
:10081000009502F055FB8DF80440012302AA01A9BE
:100820000348009502F04CFBFFF7C4FE3EBD0000FC
:1008300090000020FEE70000014800F083BC0000AB
:100840005C000020014800F07DBC00005C0000203E
:100850001CB504466B460F4A002100F0D3FB00286C
:1008600017D10D48844214D10A480068A0F50071E0
:10087000013905D0012903D0022901D0032908D16B
:100880000449401EC0B2343101EB0010694604F047
:10089000B9F81CBD300200205C00002010B50648ED
:1008A00000F038F8044800F011FFBDE810400221C4
:1008B000014800F0A5B900005C00002070B50D886B
:1008C000049C2D0A15700D7855708D882D0A957031
:1008D0000D79D5700D892D0A15710D7A55718D8997
:1008E0002D0A9571097BD17108490B6000238B603B
:1008F000C1E9033406490B68044900F0BDF900283A
:1009000003D0BDE8704000F078B970BD4C02002003
:100910003800002000B58BB000210122CDE906127D
:100920000391009108920491019102910E22059188
:100930000992694600F06AFA002801D000F05DF9DA
:100940000BB000BD2DE9F8435E485F4C007878BBE2
:100950005E4801785E4811B101292AD050E090ED3F
:10096000020AF2EE040A84ED030A90ED030A5949E3
:1009700084ED040A90ED010A80EE201A94ED050A38
:1009800031EE000A10EE100A84ED050ADFED520A7E
:10099000884203DD30EE600A84ED050A10EE100A8D
:1009A0004E4988422CD930EE200A84ED050A27E012
:1009B00048E0408CF7EE000AC107BFEE000A9FED49
:1009C000481A4FEA807104D0002907DBC4ED030AFE
:1009D00006E0002902DA84ED030A01E084ED031A3F
:1009E00041074FEA007004D5002807DBC4ED040A74
:1009F00006E0002802DA84ED040A01E084ED041A1E
:100A0000D4ED030A9FED370A374860EE800AFDEE09
:100A1000E00AC4ED000AD4ED040A20EE800ABDEE1F
:100A2000C00A84ED010AD0ED040A94ED050A2F48AE
:100A300003F0BCFADFED2E0A20EE200ABDEEC00A5C
:100A400084ED020AD4E900122A4DA0688B1A1B1A01
:100A50002B605318511A1C1A091A18444042E860B6
:100A6000C5E90141244E254F0024A5F1100800BF1F
:100A700055F8240000EE100A06EB0410B0F900004F
:100A8000F8EEC00A00EE100A04EBC40007EBC00049
:100A9000B8EEC00A03F08AFABDEEC00A10EE100AE2
:100AA00048F82400641CE4B2042CE1D30820114966
:100AB00083010090124A10391248FFF7FFFEBDE88B
:100AC000F8830000310000201400002030000020D6
:100AD000B8020020000034430000B443000034C3D7
:100AE0000000000000409CC51C02002028040020DB
:100AF00000004842E40100206402002008030020B6
:100B00003C0000205C000020014802F081BC000095
:100B1000E8000020064810B50168491C016003F098
:100B2000A7F803F00DFABDE81040FFF70BBF000077
:100B30002C000020014800F057BE00007401002086
:100B400001681823CAB2103AB2FBF3F2054B6FF3F7
:100B50000901032A9B5CC36500D9091D816508460C
:100B6000704700000050000810B5014600208B6956
:100B70008A6A4FF0C07453B1B3F5005F15D072B1FB
:100B8000012A0CD0022A0AD0032A09D104E01AB1A2
:100B9000012A06D0022A03D1C96AC90100D5012061
:100BA00010BDC96AA142FAD010BD002AF7D0012AAF
:100BB000F2D0022AF3D0032AF3D010BD30B5046876
:100BC000256825F480252560046863608368402BD0
:100BD000036803D099600068C26030BD9A60006805
:100BE000C16030BD12220249024802F0B9BF0000C4
:100BF000A402002030010020704772B6FEE700001A
:100C000070B590F820600D4604460C48814204D926
:100C10004FF4D0610AA003F0BEFE012E07D0022ED1
:100C200005D0606A40F480206062012070BD2068B9
:100C3000416929434161002070BD00007F8F03009E
:100C40002E2E2F447269766572732F53544D3332B2
:100C5000463478785F48414C5F4472697665722FFC
:100C60005372632F73746D3332663478785F6861C2
:100C70006C5F63616E2E63002DE9F04790F8208071
:100C8000994616460D46044600688768886830B164
:100C9000042804D040F2E9414EA003F07CFEE8684D
:100CA00030B1022804D040F2EA414AA003F073FEBA
:100CB0002869082804D940F2EB4146A003F06BFEF6
:100CC000A86800281BD06868B0F1005F04D340F228
:100CD000F24140A003F05FFE287D30B1012804D02E
:100CE00040F2F4413BA003F056FEB8F1010F0DD0E5
:100CF000B8F1020F0AD0606A40F4802066E02868EC
:100D0000B0F5006FE8D340F2EE41E2E717F0406F34
:100D100001D1F80057D5C7F30160022803D9606AF2
:100D200040F4000052E001218140C9F80010AA6897
:100D30004FF4C0719AB1EB681A436B6842EAC30280
:100D4000236801EB0017DA514FF4C272276802EBF7
:100D500000122B69BB502B7D012B05D009E02B889D
:100D6000EA6842EA4352EBE723689D5845F48075F0
:100D70009D503279F379757942EA0362B3791B04A5
:100D800043EA05231A434FF4C675236805EB0015A3
:100D90005A513278F378757842EA0362B3781B04CB
:100DA00043EA05231A434FF4C475236805EB001585
:100DB0005A51226801EB0010115841F00101115005
:100DC0000020BDE8F087606A40F4001060620120F6
:100DD000F7E700002E2E2F447269766572732F5349
:100DE000544D3332463478785F48414C5F447269E1
:100DF0007665722F5372632F73746D333266347855
:100E0000785F68616C5F63616E2E630070B50C463D
:100E100090F82010012907D0022905D0416A41F439
:100E200080214162012070BD20684FF48035A842C6
:100E300004D34FF4547163A003F0ADFD6068A84281
:100E400004D340F251315FA003F0A5FDA068A84291
:100E500004D340F252315BA003F09DFDE068A8424C
:100E600004D340F2533157A003F095FDA06930B18F
:100E7000012804D04FF4557152A003F08CFDE069B5
:100E800030B1012804D040F255314EA003F083FD6B
:100E9000206930B1012804D040F2563149A003F056
:100EA0007AFD206A30B1012804D040F2573145A0C4
:100EB00003F071FD6069514D1B2804D940F2723175
:100EC00040A003F068FD606A1B2804D940F273312A
:100ED0003CA003F060FDD5F8000240F00100C5F829
:100EE0000002D5F8000220F47C50C5F80002D5F8C5
:100EF0000002616A40EA0120C5F80002207D00F08E
:100F00001F0101208840D5F81C128143C5F81C122E
:100F1000E169B1B9D5F80C128143C5F80C12A28968
:100F2000616862F31F41626905EBC202C2F84012B8
:100F30002289216862F31F41626905EBC202C2F88F
:100F40004412E169012916D1D5F80C120143C5F804
:100F50000C122288616862F31F41626905EBC202CC
:100F6000C2F840122289E16862F31F41626905EB11
:100F7000C202C2F84412A1690029D5F804120FD0A8
:100F800051EA0001C5F8041221690029D5F81412AC
:100F900008D00143C5F81412216A012904D008E0E1
:100FA0008143EFE78143F5E7D5F81C120143C5F80B
:100FB0001C12D5F8000220F00100C5F80002002044
:100FC00070BD00002E2E2F447269766572732F5308
:100FD000544D3332463478785F48414C5F447269EF
:100FE0007665722F5372632F73746D333266347863
:100FF000785F68616C5F63616E2E6300006400401F
:10100000704700002DE9F04190F820801D461746FA
:101010000E00044606D0012E04D04FF4BE613BA062
:1010200003F0B9FCB8F1010F06D0B8F1020F03D0FC
:10103000606A40F480205EE02068002E56D000698F
:10104000800755D04FF4D870216800EB061009587E
:1010500011F00401B960216809584FD0C9087960BE
:101060002168085800F00200F8604FF4DA70216837
:1010700000EB0610095801F00F0139612168095889
:10108000C1F30721B96121680858000C78614FF459
:10109000DC70216800EB0610095829702168095896
:1010A000090A697021680958090CA9702168085853
:1010B000000EE8704FF4DE70216800EB061009584E
:1010C000297121680958090A697121680958090CB0
:1010D000A97121680858000EE87120688EB1016975
:1010E00041F0200101610020BDE8F081C068A7E760
:1010F000606A40F4001060620120F5E7490D396034
:10110000AEE7C16841F02001C160ECE72E2E2F440C
:101110007269766572732F53544D33324634787842
:101120005F48414C5F4472697665722F5372632F3A
:1011300073746D3332663478785F68616C5F6361B5
:101140006E2E63002DE9F05F0546006800244669B5
:10115000D0F804908768D0F80CB0D0F810A0D0F880
:101160001880F10748D0F90714D001218160B80731
:1011700003D5284600F0D7FA0CE0780702D54FF4E3
:10118000006407E0380702D54FF4805402E0284697
:1011900000F0C8FAF80516D529684FF48070886009
:1011A000B80503D5284600F0C0FA0CE0780502D552
:1011B00044F4005407E0380502D544F4804402E0CA
:1011C000284600F0B1FAF80316D529684FF48030AC
:1011D0008860B80303D5284600F0A9FA0CE078032C
:1011E00002D544F4004407E0380302D544F48034C7
:1011F00002E0284600F09AFA300707D55FEACB6094
:1012000004D52968102044F40074C86070074FF0BA
:10121000080707D55FEA0B7004D52868C760284621
:1012200000F03EFAB00706D52868C068800702D0F3
:10123000284600F037FA700607D55FEACA6004D581
:101240002968102044F480640861B00607D55FEA7D
:101250000A7004D528680761284600F033FAF006C2
:1012600006D528680069800702D0284600F02BFACE
:10127000B00308D55FEAC96005D529681020486029
:10128000284600F021FAF00307D55FEA097004D57B
:1012900028684760284600F04BFA300446D55FEADC
:1012A000497040D5F00504D55FEAC87001D044F01C
:1012B0000104B00504D55FEA887001D544F002044A
:1012C000700504D55FEA487001D544F00404300588
:1012D00029D518F0700F26D008F07000402815D0DE
:1012E00006DC102809D020280AD0302816D10AE0C0
:1012F00050280ED0602811D10EE044F008040DE013
:1013000044F010040AE044F0200407E044F04004F4
:1013100004E044F0800401E044F4807428688169AA
:1013200021F070018161296804204860002C05D0FB
:10133000686A204368622846FFF762FEBDE8F09FB6
:1013400070B504007ED0A4492068884207D0A34924
:10135000884204D040F21D11A1A003F01CFB207EA6
:1013600030B1012804D04FF48F719DA003F013FB1E
:10137000607E30B1012804D040F21F1198A003F024
:101380000AFBA07E30B1012804D04FF4907194A0E4
:1013900003F001FBE07E30B1012804D040F22111BE
:1013A0008FA003F0F8FA207F30B1012804D04FF469
:1013B00091718BA003F0EFFA607F30B1012804D067
:1013C00040F2231186A003F0E6FAA06868B1B0F1FC
:1013D000804F0AD0B0F1004F07D0B0F1404F04D099
:1013E0004FF492717EA003F0D6FAE06868B1B0F1D4
:1013F000807F0AD0B0F1007F07D0B0F1407F04D0E9
:1014000040F2251176A003F0C6FA206998B3B0F532
:10141000803F30D0B0F5003F2DD0B0F5403F2AD00E
:10142000B0F5802F27D0B0F5A02F24D0B0F5C02F75
:1014300021D0B0F5E02F1ED0B0F5002F1BD0B0F5B5
:10144000102F00E041E016D0B0F5202F13D0B0F5FA
:10145000302F10D0B0F5402F0DD0B0F5502F0AD05E
:10146000B0F5602F07D0B0F5702F04D04FF4937112
:101470005BA003F090FA6069C8B1B0F5801F16D088
:10148000B0F5001F13D0B0F5401F10D0B0F5800F9D
:101490000DD0B0F5A00F0AD0B0F5C00F07D0B0F551
:1014A000E00F04D040F227114DA003F074FA6068F9
:1014B000401EB0F5806F04D34FF4947148A003F040
:1014C0006AFA94F8200010B104E0012070BD2046B3
:1014D00000F0A2F82068016841F00101016000F00D
:1014E0001DFE0546052604E000F018FE401B0A28F4
:1014F00011D820684068C007F6D02068016821F044
:101500000201016000F00AFE05460BE000F006FE55
:10151000401B0A2806D9606A40F40030606284F8F3
:101520002060D2E7206840688007EFD4207E012841
:10153000206801683DD021F080010160607E0128B3
:101540002068016838D021F040010160A07E0128A8
:101550002068016833D021F020010160E07E01287D
:10156000206801682ED041F010010160207F012821
:101570002068016829D021F008010160607F0128FE
:101580002068016824D021F004010160D4E902013F
:101590000843D4E90412114308436168491E084313
:1015A0002168C86100206062012084F820000020CA
:1015B00070BD41F08001C0E741F04001C5E741F056
:1015C0002001CAE721F01001CFE741F00801D4E77C
:1015D00041F00401D9E700000064004000680040C9
:1015E0002E2E2F447269766572732F53544D333209
:1015F000463478785F48414C5F4472697665722F53
:101600005372632F73746D3332663478785F686118
:101610006C5F63616E2E630010B586B004461421C2
:101620006846FEF7CAFE1B49206888422FD11A4837
:101630000021026842F000720260006800F0007051
:10164000059015481038026842F0080202600068F0
:10165000022200F0080005900320CDE90210CDE938
:1016600000020920049069460C4800F073FB002238
:101670000121132000F05AFE132000F025FE002265
:101680000121142000F052FE142000F01DFE06B0CF
:1016900010BD00000064004040380240000C0240D1
:1016A0007047000010B504460548844202D1204628
:1016B000FFF7CEF82046BDE810400221FFF7A0BAA0
:1016C0005C000020704770477047000070B504460A
:1016D00090F82000012804D0606A40F40020606285
:1016E00018E0022084F820002068016821F0010140
:1016F000016000F013FD05460EE000BF00F00EFD96
:10170000401B0A2808D9606A40F400306062052056
:1017100084F82000012070BD20684068C007EDD12A
:10172000606270BD70477047704770477047704780
:1017300070472DE9F0410446876D00F0EFFC064646
:1017400094F835000025022806D08020606584F8D2
:1017500034500120BDE8F0812068016821F01601B5
:1017600001602068416921F080014161206C08B965
:10177000A06C20B12068016821F008010160206898
:10178000016821F0010101600CE000F0C7FC801B42
:10179000052807D920206065032084F8350084F8E7
:1017A0003450D7E720680068C007EED194F85C1089
:1017B0003F208840B860012084F8350084F8345018
:1017C0000020C7E790F83510022903D08021416539
:1017D00001207047052180F835100068016821F06C
:1017E00001010160002070472DE9F84304464FF0E5
:1017F0000009CDF8009063484FF41651A56D0068BC
:10180000B0FBF1F72E6894F85C10082000FA01F1A3
:1018100031420FD021680A6852070BD50A6822F0BE
:1018200004020A6094F85C108840A860606D40F083
:101830000100606594F85C104FF0010808FA01F0AF
:10184000304208D021684969090604D5A860606D56
:1018500040F00200606594F85C100420884030423B
:1018600008D021680968890704D5A860606D40F038
:101870000400606594F85C1010208840304218D055
:1018800021680968090714D5A86020680168490320
:1018900004D50068000308D5A16C07E00168C905FC
:1018A00003D4016821F008010160216C09B12046D0
:1018B000884794F85C1020208840304231D021685D
:1018C0000968C9062DD5A86094F835000528206858
:1018D000016806D0490347D5006800031DD4616C38
:1018E0001CE021F0160101602068416921F08001AF
:1018F0004161206C08B9A06C20B12068016821F01A
:101900000801016094F85C103F208840A86084F8CA
:10191000358084F83490216D1FE0E16B09B12046D9
:101920008847606D00282BD0606DC00714D005205B
:1019300084F835002068016821F0010101600098F9
:10194000401C0090B84203D820680068C007F6D158
:1019500084F8358084F83490E16C002910D001B00F
:101960002046BDE8F04308470168C905D5D40168A1
:1019700021F01001016084F8358084F83490CCE7C0
:10198000BDE8F883100000202DE9F041044600F086
:10199000C5FB0546002C7CD0A249206888423ED079
:1019A000A049183188423AD09E493031884236D019
:1019B0009C494831884232D09A49603188422ED0C1
:1019C0009849783188422AD096499031884226D069
:1019D0009449A831884222D0934988421FD0924925
:1019E000183188421BD090493031884217D08E4937
:1019F0004831884213D08C49603188420FD08A49DF
:101A0000783188420BD088499031884207D0864986
:101A1000A831884203D0B82184A002F0BCFF6068DE
:101A2000C0B1B0F1007F15D0B0F1806F12D0B0F12D
:101A3000C06F0FD0B0F1006F0CD0B0F1206F09D0A3
:101A4000B0F1406F06D0B0F1606F03D0B92177A03C
:101A500002F0A1FFA06838B1402805D0802803D04B
:101A6000BA2172A002F097FFE068B0F5007F04D0C1
:101A700018B1BB216DA002F08EFF2069B0F5806F18
:101A800004D018B1BC2169A002F085FF606958B18B
:101A900000E071E0B0F5006F06D0B0F5805F03D0D4
:101AA000BD2162A002F077FFA06948B1B0F5005FE8
:101AB00006D0B0F5804F03D0BE215CA002F06BFFD2
:101AC000E06940B1B0F5807F05D0202803D0BF2168
:101AD00056A002F060FF206A60B1B0F5803F09D0E7
:101AE000B0F5003F06D0B0F5403F03D0C0214FA075
:101AF00002F051FF606A002832D0042806D0C121CC
:101B00004AA002F048FF606A002829D0A06A48B1C4
:101B1000012807D0022805D0032803D0C62143A0FE
:101B200002F039FFE06A60B1B0F5000F09D0B0F102
:101B3000807F06D0B0F1C07F03D0C7213BA002F068
:101B40002AFF206B60B1B0F5001F09D0B0F5800FFF
:101B500006D0B0F5C00F03D0C82134A002F01BFF9F
:101B6000022084F83500002684F83460206801687B
:101B700021F0010101600EE00120BDE8F08100BF0D
:101B800000F0CCFA401B052805D920206065032011
:101B900084F83500F1E720680068C007F0D12268BA
:101BA000116830480140D4E901031843D4E90335F2
:101BB0002B43184363691843A3691843E369184327
:101BC000236A18430843616A042903D1D4E90B133B
:101BD00019430843106020684069656A20F00700D7
:101BE00029460543012704290CD1A06A0543E06A70
:101BF00040B12046FEF7B8FF20B14020606584F870
:101C00003570B9E7206845612046FEF799FF94F8E2
:101C10005C203F2191408160666584F8357000202A
:101C2000ABE7000010600240106402402E2E2F44EB
:101C30007269766572732F53544D33324634787817
:101C40005F48414C5F4472697665722F5372632F0F
:101C500073746D3332663478785F68616C5F646D7D
:101C6000612E63003F8010F02DE9F047894604465D
:101C7000876D0025581E4FF6FF711E46904688421C
:101C800004D34FF4E6711CA002F085FE94F83400F2
:101C900001280DD0012084F8340094F8351000207C
:101CA000012907D084F8340002252846BDE8F087D2
:101CB0000220FBE7022184F8351060653346424676
:101CC00049462046FEF77AFF94F85C103F20884092
:101CD000B8602068016841F016010160206C20B1F5
:101CE0002068016841F0080101602068016841F046
:101CF00001010160D9E700002E2E2F44726976653C
:101D000072732F53544D3332463478785F48414CC8
:101D10005F4472697665722F5372632F73746D33EB
:101D200032663478785F68616C5F646D612E630041
:101D300070B5044600F0F2F90546601C02D0044874
:101D40000078044400F0EAF9401BA042FAD370BDC9
:101D5000040000202DE9F84FDFF888B20D46044654
:101D600058451BD0A048844218D0A048844215D0C2
:101D70009F48844212D09F4884420FD09E4884429C
:101D80000CD09E48844209D09D48844206D09D488C
:101D9000844203D0AC219CA002F0FDFD2868010420
:101DA000090C01D0000C03D0AD2197A002F0F3FD87
:101DB0006868F8B101281DD011281BD0022819D05D
:101DC000122817D0B0F5881F14D0B0F5041F11D019
:101DD000B0F5441F0ED0B0F5901F0BD0B0F5081F22
:101DE00008D0B0F5481F05D0032803D0AE2186A047
:101DF00002F0D1FD00264FF0010A4FF0030900BFA9
:101E00000AFA06F02F688046074047457ED12879B8
:101E100000F00300012801D002281DD1E86848B174
:101E2000012807D0022805D0032803D0C02176A0BE
:101E300002F0B1FDA168720009FA02F08143E8687E
:101E400090400843A0606068297920EA0800C1F347
:101E50000011B140014361602879C043800712D06E
:101E6000A86838B1012805D0022803D0D12166A086
:101E700002F091FDE168720009FA02F08143A8685E
:101E800090400843E060287900F0030002282ED13A
:101E90002869F8B109281DD001281BD0022819D0C3
:101EA000032817D0042815D0052813D0062811D0F0
:101EB00007280FD008280DD00A280BD00B2809D0EE
:101EC0000C2807D00D2805D00F2803D0DE214EA006
:101ED00002F061FDF00804EB8002106A7107CB0E7E
:101EE0000F21994088432969994001431162206874
:101EF000720009FA02F18843297901F00301914047
:101F000001432160686810F4403F00E063E062D064
:101F10004C48016841F480410160006826F00301EB
:101F200000F48040009048480A18D2F80808B10729
:101F30000B0F0F21994088435C4501D1002123E01C
:101F400029498C4201D101211EE028498C4201D14E
:101F5000022119E026498C4201D1032114E02549D0
:101F60008C4201D104210FE023498C4201D105218B
:101F70000AE022498C4201D1062105E020498C4229
:101F800001D1072100E0082199400143C2F8081857
:101F90002E4908686A68B843D20300D53843086000
:101FA0002A49091D08686A68B843920300D5384376
:101FB00008602649083108686A68B843D20200D52B
:101FC0003843086021490C3108686A68B8439202B6
:101FD00000D538430860761C102EFFF411AFBDE821
:101FE000F88F000000000240000402400008024098
:101FF000000C024000100240001402400018024091
:10200000001C0240002002402E2E2F44726976658B
:1020100072732F53544D3332463478785F48414CB5
:102020005F4472697665722F5372632F73746D33D8
:1020300032663478785F68616C5F6770696F2E63B1
:10204000000000004438024000300140003C0140E4
:1020500070B50C00054604D14FF4DB7105A002F009
:102060009AFC696924EA0100214040EA0140A86124
:1020700070BD00002E2E2F447269766572732F5347
:10208000544D3332463478785F48414C5F4472692E
:102090007665722F5372632F73746D3332663478A2
:1020A000785F68616C5F6770696F2E630000000085
:1020B00070B515460C00064604D140F29D1108A0EB
:1020C00002F069FC45B1012D04D04FF4CF7104A09A
:1020D00002F061FCB46170BD2004B06170BD00000D
:1020E0002E2E2F447269766572732F53544D3332FE
:1020F000463478785F48414C5F4472697665722F48
:102100005372632F73746D3332663478785F68610D
:102110006C5F6770696F2E63000000000148806883
:10212000704700000400002070B5040033D0264939
:102130002068884203D0AF2124A002F02CFC606804
:1021400078B101280DD002280BD0032809D004282B
:1021500007D0052805D0062803D0B0211BA002F027
:102160001AFCA068B0F5805F03D3B12117A002F07C
:1021700012FC21684CF6CC400860216845F25550AD
:102180000860D4E9000141602168A0688860FFF719
:10219000C5FF05460DE0012070BD00BFFFF7BEFF83
:1021A000401B312805D92068C068800701D0032072
:1021B00070BD2068C0688007F0D121684AF6AA2067
:1021C0000860002070BD0000003000402E2E2F441B
:1021D0007269766572732F53544D33324634787872
:1021E0005F48414C5F4472697665722F5372632F6A
:1021F00073746D3332663478785F68616C5F6977C9
:1022000064672E630000000000684AF6AA2101609E
:10221000002070470248816802781144816070474D
:10222000040000200B4810B5016841F40071016002
:10223000016841F480610160016841F480710160CE
:10224000032000F0C3F80F2000F006F800F024F897
:10225000002010BD003C024070B50D4D04464FF407
:102260007A712878B1FBF0F00A490968B1FBF0F007
:1022700000F03AFF48B9102C07D200222146501E28
:1022800000F054F800206C6070BD012070BD0000AB
:1022900004000020100000200A4808B5016841F43D
:1022A00080410160006800F4804000900548001FF4
:1022B000016841F080510160006800F0805000909A
:1022C00008BD00004438024010B5040003D5BE210B
:1022D00007A002F060FB002C09DB04F01F010120C5
:1022E00088406109890001F1E021C1F8000110BDB9
:1022F0002E2E2F447269766572732F53544D3332EC
:10230000463478785F48414C5F4472697665722F35
:102310005372632F73746D3332663478785F6861FB
:102320006C5F636F727465782E63000070B515463C
:102330000C460646102A03D3AA2114A002F02BFB58
:10234000102C03D3AB2111A002F025FB1E4800681E
:10235000C0F30223C3F107022046042A00D9042255
:10236000191D072901D2002300E0DB1E012404FA15
:1023700002F1491E014099409C40641E2C402143BB
:102380003046BDE8704002F0F6BA00002E2E2F4411
:102390007269766572732F53544D333246347878B0
:1023A0005F48414C5F4472697665722F5372632FA8
:1023B00073746D3332663478785F68616C5F636F15
:1023C000727465782E6300000CED00E010B50446D1
:1023D00007280BD0062C09D0052C07D0042C05D0DB
:1023E000032C03D0922108A002F0D5FA154904F07D
:1023F000070208684FF6FF03184040EA0220124A1D
:102400001043086010BD00002E2E2F4472697665BF
:1024100072732F53544D3332463478785F48414CB1
:102420005F4472697665722F5372632F73746D33D4
:1024300032663478785F68616C5F636F7274657858
:102440002E6300000CED00E00000FA052DE9F047D6
:102450000E4604007DD02068401E0E2804D94FF49B
:1024600017717AA002F097FA96B1012E10D0022EC1
:102470000ED0032E0CD0042E0AD0052E08D0062E26
:1024800006D0072E04D040F25D2170A002F083FA3E
:10249000DFF8F081D8F80000F7B200F00700B04292
:1024A00007D288F80070D8F8000000F00700B042AA
:1024B0004FD12068744D810729D5400703D528687E
:1024C00040F4E05028602078000703D5286840F4E5
:1024D00060402860A068A0B1802812D0902810D059
:1024E000A0280ED0B0280CD0C0280AD0D02808D000
:1024F000E02806D0F02804D04FF4207153A002F059
:102500004AFA2868A16820F0F00008432860207883
:10251000C00743D0DFF870916068A9F1080988B15D
:10252000012822D0022824D0032822D040F287217B
:1025300046A002F030FA6068012816D0022818D0B0
:10254000032816D0D9F800008007002833DA28685D
:1025500000E030E0616820F0030008432860FFF7E6
:10256000DDFD814641F2883A11E0D9F80000800390
:10257000EBE7D9F800008001E7E700BFFFF7CEFDE9
:10258000A0EB0901514502D90320BDE8F087286876
:10259000616800F00C00B0EB810FEFD1D8F80010AB
:1025A000404601F00701B14207D90770006800F00A
:1025B0000700B04201D00120E7E720784FF48056B1
:1025C00040074FF4A0574FF4C0584FF4E05914D5CA
:1025D000E06860B1B0420AD0B84208D0404506D0A9
:1025E000484504D040F2C52118A002F0D4F928686B
:1025F000E16820F4E050084328602078000715D5F2
:10260000206960B1B0420AD0B84208D0404506D037
:10261000484504D04FF433710CA002F0BCF928688F
:10262000216920F4604040EAC100286000F054F8BD
:102630002968164AC1F30311515CC8401449086067
:1026400014480068FFF708FE00209EE72E2E2F4456
:102650007269766572732F53544D333246347878ED
:102660005F48414C5F4472697665722F5372632FE5
:1026700073746D3332663478785F68616C5F72634F
:10268000632E6300003C02400838024008500008F6
:10269000100000200800002004480549006809686F
:1026A000044AC1F38221515CC840704710000020E9
:1026B00008380240185000080448054900680968B5
:1026C000044AC1F34231515CC840704710000020F9
:1026D0000838024018500008154810B5006810F07E
:1026E0000C02144813D01449042A0FD0082A0ED122
:1026F0000F4C241F2268236802F03F025B0207D5BB
:102700002068C0F38810A0FB010106E0084610BD58
:102710002168C1F38811A1FB00010023FDF7A4FD8E
:102720002168C1F30141491C4900B0FBF1F010BD23
:10273000083802400024F400001BB7002DE9F84FD0
:1027400004007DD020680F2803D9E821F7A002F00B
:1027500022F92078DFF80C94C007A9F1040555D0C0
:1027600060684FF480364FF4A02738B1B04205D0EE
:10277000B84203D0ED21EDA002F00DF9F948001D9B
:102780000168C1F38101012908D00068C0F381000C
:1027900002280AD1D9F80000400206D52868800333
:1027A00034D560680028CCD030E06068B04203D1F6
:1027B000286840F480300CE0B842286803D140F427
:1027C00080202860F4E720F480302860286820F416
:1027D00080202860606860B1FFF7A0FC064604E036
:1027E000FFF79CFC801B64287ED828688003F7D5FF
:1027F0000CE0FFF793FC064605E000BFFFF78EFCF8
:10280000801B6428F0D828688003F7D42078DFF88C
:10281000588380074FF0000A56D5E06830B1012890
:1028200004D040F21F11C1A002F0B5F820691F28A2
:1028300004D94FF49071BDA002F0ADF8C94800E092
:1028400092E0001D016811F00C0F08D00068C0F381
:102850008100022810D1D9F8000040020CD4286869
:10286000800702D5E06801287ED12868216920F020
:10287000F80040EAC10017E0E068B8B10120C8F8EC
:102880000000FFF74BFC064605E000BFFFF746FCE3
:10289000801B0228A8D828688007F7D5286820F070
:1028A000F801206941EAC00028600DE0C8F800A0E6
:1028B000FFF734FC064604E0FFF730FC801B0228DB
:1028C00092D828688007F7D4207800072ED5A54E27
:1028D000A64F60697036D0B1012808D04FF4B071AE
:1028E00092A002F058F800E04BE1606978B1012055
:1028F0003860FFF713FC074605E000BFFFF70EFC4A
:10290000C01B0228C6D830688007F7D50EE0C7F88C
:1029100000A0FFF703FC074605E000BFFFF7FEFB42
:10292000C01B0228B6D830688007F7D4207840074B
:1029300076D5A068002740B1012806D0052804D02C
:102940004FF4C67179A002F026F8DFF818B20BF147
:102950003C0BDBF80000C0000DD4DBF8001041F0A8
:102960008051CBF8001000E038E1DBF800000127CF
:1029700000F0805000907E4E3068C00511D4306861
:1029800040F480703060FFF7C9FB009006E000BFA4
:10299000FFF7C4FB0099401A022891D83068C0059F
:1029A000F6D5704EA0686C3601280FD00528306827
:1029B00010D020F001003060306820F0040030605A
:1029C000A068B8B1FFF7AAFB00900FE0306840F0B4
:1029D0000100F4E740F004003060F7E7FFF79EFBEA
:1029E0000099411A41F2883081428BD830688007C3
:1029F000F4D50EE0FFF792FB009007E0FFF78EFBA7
:102A00000099411A41F2883081428BD830688007A2
:102A1000F4D42FB1DBF8001021F08051CBF8001076
:102A2000A069002876D0012809D0022807D040F2FA
:102A3000CF113EA001F0AFFFA0690028F2D04948B5
:102A4000001D0068C0F381000228A0696DD0022833
:102A500005D0C8F860A0FFF761FB044694E0E06988
:102A600038B1B0F5800F04D04FF4EC712FA001F015
:102A700092FF206A3F2804D940F2D9112BA001F01F
:102A80008AFF606A3238B0F5BF7F04D94FF4ED7128
:102A900026A001F080FFA06A02280AD0042808D0EE
:102AA000062806D0082804D040F2DB111FA001F050
:102AB00072FFE06A801E0D2804D94FF4EE711BA04E
:102AC00001F069FF4746C8F860A0FFF727FB0646FC
:102AD00005E000BFFFF722FB801B022851D82868C1
:102AE0008001F7D4D4E907010843A16A214A4908C3
:102AF00002EB0141626A41EA8211084394F82C100A
:102B000040EA0161C9F8001001203866FFF706FBB2
:102B1000044606E064E000BFFFF700FB001B02284C
:102B20002FD828688001F7D55AE031E02E2E2F44A7
:102B30007269766572732F53544D33324634787808
:102B40005F48414C5F4472697665722F5372632F00
:102B500073746D3332663478785F68616C5F72636A
:102B6000632E63000438024000004742800E474253
:102B7000007000400000FFFFFFF7D0FA001B0228A2
:102B800002D90320BDE8F88F28688001F4D427E03B
:102B90000128F7D0D9F80000E26900F480019142E1
:102BA0001CD1226A00F03F01914217D147F6C07153
:102BB000626A0140B1EB821F10D1A26A4FF0FF336D
:102BC00000F4403103EB5202B1EB024F06D194F80E
:102BD0002C1000F07060B0EB016F01D00120D1E744
:102BE0000020CFE770B504007ED08049206888427D
:102BF0000AD07F49884207D07E49884204D04FF4EA
:102C0000A1717DA001F0C7FE60684FF4827630B1FB
:102C1000B04204D040F2431177A001F0BCFEA0689E
:102C200050B1B0F5806F07D0B0F5004F04D04FF42D
:102C3000A27171A001F0AFFEE068B0F5006F05D0A1
:102C400020B140F245116CA001F0A5FEA069B0F5DD
:102C5000007F08D038B1B0F5802F04D04FF4A371B5
:102C600065A001F098FEE06990B1082810D0102806
:102C70000ED018280CD020280AD0282808D03028B8
:102C800006D0382804D040F247115BA001F083FE43
:102C9000206A30B1802804D04FF4A47156A001F00E
:102CA0007AFE606A002548B3102806D040F2491128
:102CB00051A001F070FE606A00B3E06990B108288D
:102CC00010D010280ED018280CD020280AD0282880
:102CD00008D0302806D0382804D040F25B1146A036
:102CE00001F059FE256100E006E06561A56294F8F7
:102CF0005100002830D034E0012070BD206930B18F
:102D0000022804D04FF4A6713BA001F044FE606994
:102D100030B1012804D040F24D1137A001F03BFE44
:102D20006068B04216D1E0690028DFD00828DDD005
:102D30001028DBD01828D9D02028D7D02828D5D0E3
:102D40003028D3D03828D1D040F251112AA001F038
:102D500022FECBE7E561C9E784F85050204600F039
:102D600067F8022084F851002068016821F04001D2
:102D70000160A088218900F4827001F404410843B5
:102D8000A18901F400610843217C01F0020108439C
:102D9000217D01F001010843218B01F400710843FA
:102DA000217F01F03801084394F8201001F08001E0
:102DB0000843218D01F40051084321680860A0698F
:102DC000042101EA104094F8241001F01001084396
:102DD000216848602068C16921F40061C1616565AE
:102DE000012084F85100002070BD00000030014037
:102DF00000380040003C00402E2E2F44726976655A
:102E000072732F53544D3332463478785F48414CB7
:102E10005F4472697665722F5372632F73746D33DA
:102E200032663478785F68616C5F7370692E630016
:102E3000F0B587B0044614216846FDF7BEFA1C4978
:102E40002068884232D11B480024016841F4805137
:102E50000160006800F4805005901648143801683D
:102E600041F002010160016801F002010591016871
:102E700041F0010101600068022500F001000590A9
:102E80001820CDE9000502AA0326052782E8D00014
:102E900069460948FEF75EFF8020CDE9000502AAD9
:102EA000694682E8D0000548FEF754FF07B0F0BD40
:102EB000003001404438024000040240000002405B
:102EC0002DE9F84F04460A9E80681D4692468B46BF
:102ED0004FF00109002720B140F27E4174A001F0BB
:102EE0005AFD94F8500001280ED0012084F85000BB
:102EF000FFF714F9804694F85100616801280CD05E
:102F0000B1F5827F07D102E00220BDE8F88FA16809
:102F100009B9042801D00227C2E0BBF1000F27D075
:102F2000BAF1000F24D01DB394F85100042802D048
:102F3000052084F8510000206065C4F838A0E587BA
:102F4000A587C4F830B0E586A58620646064206853
:102F50000168490603D4016841F040010160E0685E
:102F6000B0F5006F606805D0F0B3012D46D07FE06A
:102F7000012795E008B1012D39D1206B2168008827
:102F8000C860206B801C2063E08E401EE0862EE02F
:102F90002068816889070FD5E18E69B1B9F1010F09
:102FA0000AD1216B0988C160206B801C2063E08EF0
:102FB000401EE0864FF0000920688168C9070CD0E8
:102FC000E18F51B1C068A16B0880A06B801CA06329
:102FD000E08F401EE0874FF00109FFF79FF8A0EB5C
:102FE0000800B04203D300E008E0701C50D1E08E2E
:102FF0000028CDD1E08F0028CAD13FE0206B2168A6
:1030000000780873206B401C2063E08E401EE08631
:103010002EE02068816889070FD5E18E69B1B9F18A
:10302000010F0AD1216B09780173206B401C2063CA
:10303000E08E401EE0864FF0000920688168C907D5
:103040000CD0E18F51B1C068A16B0870A06B401C1F
:10305000A063E08F401EE0874FF00109FFF75EF8A4
:10306000A0EB0800B04202D3701C01D010E07EB18A
:10307000E08E0028CDD1E08F0028CAD142463146EB
:10308000204601F0FDF828B101272020606507E007
:10309000032705E0A06818B92068C168806800901F
:1030A000012084F85100002084F8500038462CE7B5
:1030B0002E2E2F447269766572732F53544D33321E
:1030C000463478785F48414C5F4472697665722F68
:1030D0005372632F73746D3332663478785F68612E
:1030E0006C5F7370692E630010B5401EB0F1807F75
:1030F00001D3012010BD4FF0E02460610F21601763
:1031000001F039FC0020A06107202061002010BDE3
:10311000704770472DE9F05F044600683A4E3B4F18
:10312000DFF8EC80DFF8EC90DFF8ECA00D464FF014
:10313000804BB04215D0584513D0B84211D040450D
:103140000FD048450DD04FEAB641884209D03349E7
:10315000884206D0504504D040F2B17130A001F051
:103160001AFC286890B1102810D020280ED03028E2
:103170000CD040280AD0502808D0602806D07028EB
:1031800004D040F2B27126A001F005FC68688028E6
:1031900005D020B140F2B37121A001F0FCFB94F8FE
:1031A0003C0001282DD0012284F83C20022084F824
:1031B0003D00216848688B6820F0700C286840EA60
:1031C0000C0048602068B0420FD058450DD0B8427E
:1031D0000BD0404509D0484507D0504505D01F4980
:1031E000884202D01E49884204D1696823F08003D6
:1031F0001943816084F83D20002084F83C00BDE83C
:10320000F09F0220FBE700000000014000040040A6
:1032100000080040000C0040000401400014004081
:103220002E2E2F447269766572732F53544D3332AC
:10323000463478785F48414C5F4472697665722FF6
:103240005372632F73746D3332663478785F6861BC
:103250006C5F74696D5F65782E630000004001400B
:103260000018004010B5040058D03F49206888423B
:103270002BD0B0F1804F28D03C49884225D03C4922
:10328000884222D03B4988421FD03B4988421CD00B
:103290003A49884219D03A49884216D03949884279
:1032A00013D03949884210D0384988420DD0384966
:1032B00088420AD03749884207D03749884204D02B
:1032C00040F2131135A001F066FBA06860B1102830
:1032D0000AD0202808D0402806D0602804D04FF417
:1032E0008A712EA001F057FB206950B1B0F5807FA4
:1032F00007D0B0F5007F04D040F2151127A001F0EF
:103300004AFBA06930B1802804D04FF48B7123A010
:1033100001F041FB94F83D0010B107E0012010BD21
:10332000002084F83C00204600F054F8022084F885
:103330003D00211D206801F08BF8012084F8460033
:1033400084F83E0084F83F0084F8400084F841008F
:1033500084F8420084F8430084F8440084F845006F
:1033600084F83D00002010BD000001400004004032
:1033700000080040000C0040001000400014004015
:103380000004014000400140004401400048014069
:1033900000180040001C0040002000402E2E2F444A
:1033A0007269766572732F53544D33324634787890
:1033B0005F48414C5F4472697665722F5372632F88
:1033C00073746D3332663478785F68616C5F7469EA
:1033D0006D2E630008B500680B49884212D10B4876
:1033E000016841F0100101600068002200F0100047
:1033F000009001213620FEF799FFBDE808403620F5
:10340000FEF762BF08BD00000010004040380240D7
:103410002DE9F05F044600682F4D304E304FDFF845
:10342000C480DFF8C490DFF8C4A0DFF8C4B0A842BD
:1034300026D0B0F1804F23D0B04221D0B8421FD067
:1034400040451DD04FEAB541884219D029498842EC
:1034500016D0484514D0504512D0274988420FD085
:10346000264988420CD058450AD02549884207D0C1
:103470002449884204D040F2CF1123A001F08BFAF6
:1034800094F83D00012802D00120BDE8F09F022001
:1034900084F83D002068C16841F00101C1602068E6
:1034A000A8420ED0B0F1804F0BD0B04209D0B84244
:1034B00007D0404505D0484503D0504501D0584578
:1034C00004D1816801F00701062903D0016841F0A9
:1034D000010101600020D8E7000001400004004025
:1034E00000080040000C0040000401400040014082
:1034F0000018004000140040004401400048014012
:10350000001C0040002000402E2E2F44726976657A
:1035100072732F53544D3332463478785F48414CA0
:103520005F4472697665722F5372632F73746D33C3
:1035300032663478785F68616C5F74696D2E630001
:10354000704770B50446006801694FF00005C94333
:10355000890715D4C168C943890711D4E91E0161DF
:1035600001202077206880698007204602D0FFF77D
:10357000E7FF04E000F098F8204600F096F8257781
:1035800020680169C943490717D4C168C94349077D
:1035900013D46FF004010161022020772068806954
:1035A00010F4407F204602D0FFF7CAFF04E000F08D
:1035B0007BF8204600F079F8257720680169C94337
:1035C000090716D4C168C943090712D46FF008016E
:1035D0000161042020772068C0698007204602D05E
:1035E000FFF7AEFF04E000F05FF8204600F05DF862
:1035F000257720680169C943C90617D4C168C94342
:10360000C90613D46FF010010161082020772068EB
:10361000C06910F4407F204602D0FFF791FF04E01C
:1036200000F042F8204600F040F825772068016954
:10363000C943C90708D1C168C943C90704D1891E54
:103640000161204600F032F820680169C94309068B
:1036500009D4C168C943090605D46FF0800101612E
:103660002046FFF755FD20680169C943490609D482
:10367000C168C943490605D46FF040010161204685
:1036800000F034F820680169C94389060BD4C16889
:10369000C943890607D46FF0200101612046BDE8C7
:1036A0007040FFF736BD70BD704770470C4910B5CC
:1036B000884210D10B4C4FF47A71206890FBF1F2E4
:1036C00001FB1200012803D1C1020748FEF7C0FC2C
:1036D0002068401C2060BDE81040FDF71BBA0000C8
:1036E000E800002000000020001C024070477047E6
:1036F00070470000F8B5016804460868CA684B695D
:1037000010F00F0F4FF0000559D003F0010602F43E
:103710009077374365D0C10705D0D10503D5216C1B
:1037200041F001012164410705D5D90703D0216C7F
:1037300041F002012164810705D5D90703D0216C2E
:1037400041F004012164010707D502F02001314353
:1037500003D0216C41F008012164216C00293AD08A
:10376000800604D5900602D5204600F085FF20682B
:103770004069216CC0F38010090700D460B3204673
:1037800000F045FF20684069400621D520681430CC
:1037900050E8001F21F0400140E80012002AF5D156
:1037A000A06BA8B16C490165A06BFEF70BF800286F
:1037B00011D0A06B016D01B0BDE8F0400847830651
:1037C0000FD593060DD52046BDE8F84000F054BF54
:1037D0002046FFF78DFFF8BD2046FFF789FF2564DF
:1037E000F8BD266B2023012E79D1C60677D5D606E3
:1037F00075D50868486800904869400640D5A16BB7
:10380000086840680004000CEAD0A28D8242E7D923
:10381000E085C869B0F5807F2DD020680C3050E875
:10382000001F21F4807140E80012002AF5D12068C1
:10383000143050E8001F21F0010140E80012002A76
:10384000F5D12068143050E8001F21F0400140E815
:103850000012002AF5D184F83E30256320680C3030
:1038600050E8001F21F0100140E80012002AF5D1B5
:10387000A06BFDF75EFFA08DE18D401A81B229E0BB
:10388000A08DE18D401A81B2E08D0028A8D00029DA
:10389000A6D020680C3050E8002F22F4907240E847
:1038A0000026002EF5D12068143050E8002F22F0B9
:1038B000010240E80026002EF5D184F83E30256351
:1038C00020680C3050E8002F22F0100240E800235E
:1038D000002BF5D12046FFF70AFFF8BDFFE70506EC
:1038E0002BD5150629D594F83D002128F5D1A068DF
:1038F000B0F5805F01D12069B0B1206A411C21621E
:10390000216800784860E08C401E0004000CE084D0
:10391000E3D12068C16821F08001C1602068C168DE
:1039200041F04001C160D8E7206A0088C0F3080078
:103930004860206A801C2062E5E74006CDD550062D
:10394000CBD5CA68204622F04002CA6084F83D30D8
:1039500000F02BF9C1E700001945000870B504001C
:1039600023D0A0693B4900283B4A3C4B3C4D206892
:103970001DD088420CD090420AD0984208D0A8426C
:1039800006D04FF4B97137A001F005F8A06908B36B
:10399000A069B0F5807F1DD0B0F5007F1AD0B0F5DA
:1039A000407F17D040F2731111E0012070BD8842B2
:1039B00010D090420ED098420CD03949884209D09C
:1039C0003849884206D0A84204D040F2771125A099
:1039D00000F0E1FFA06838B1B0F5805F04D040F29C
:1039E000791120A000F0D7FFE06938B1B0F5004FA1
:1039F00004D04FF4BD711BA000F0CDFF94F83D0042
:103A0000002520B984F83C50204600F04DF82420D1
:103A100084F83D002068C16821F40051C16020464F
:103A200000F08AFE2068016921F49041016120685C
:103A3000416921F02A0141612068C16841F40051C7
:103A4000C1602564202084F83D0084F83E000020F9
:103A500070BD0000001001400044004000480040DC
:103A6000001401402E2E2F447269766572732F5315
:103A7000544D3332463478785F48414C5F44726924
:103A80007665722F5372632F73746D333266347898
:103A9000785F68616C5F756172742E63000000006E
:103AA000004C00400050004070B586B0064614211E
:103AB0006846FCF782FC25493068884243D1244897
:103AC0000025016841F480210160006800F4802035
:103AD00005901F481038016841F00401016000683A
:103AE000694600F0040005904FF440600090022009
:103AF000CDE9010503200390072004901548FEF747
:103B000029F9164C144820604FF00060C4E9010503
:103B10004014C4E9035080106561C4E906504FF4B5
:103B20004030C4E908052046FDF72EFF08B1FDF737
:103B300064F8B463002211462720A663FEF7F6FB63
:103B40002720FEF7C1FB06B070BD00000048004012
:103B50004038024000080240286002407401002002
:103B600090F83E30202B0ED159B152B190F83C3034
:103B7000012B08D0012380F83C300023036300F0C0
:103B8000ABBE012070470220704700000349884205
:103B900003D10349034800F0FBBA7047300100200D
:103BA000A4020020B802002070477047FEE7000022
:103BB0001CB56846FCF76EFDBDF9000000EE100A6A
:103BC0000F48F8EEC00A9FED0D0A80EE801A80EDD6
:103BD000001ABDF9021000EE901AF8EEE00A80EE2D
:103BE000801A80ED011ABDF9041000EE901AF8EE6B
:103BF000E00A80EE801A80ED021A1CBD00A02A4661
:103C0000F401002010B500F005F8BDE81040FFF702
:103C1000CFBF000010B51348FCF78CFD1148B0F978
:103C2000001000EE101A1149F8EEC00A9FED0E0ABE
:103C300080EE801A81ED041AB0F9022000EE902A7D
:103C4000F8EEE00A80EE801A81ED051AB0F9040062
:103C500000EE900AF8EEE00A80EE801A81ED061A76
:103C600010BD0000320000206F128341F4010020DB
:103C700010B5FFF7C7FF2748274941F2883302688C
:103C800001F128009A4220D2D1ED040A9FED230AC7
:103C900080EE801AD0ED000A71EE200AC0ED000A15
:103CA00091ED051AC1EE000A90ED011A70EE810A3D
:103CB000C0ED010AD1ED060A80EE801A90ED020AED
:103CC00031EE000A80ED020A10BD90ED020AD1ED3E
:103CD000060A9FED131A134A70EE600AC0ED030A3C
:103CE00090ED040A00EE810ADFED0F0A10EE101AC3
:103CF00080ED040A914202DD30EE600A06E010EE2B
:103D0000101A0A4A9142DFD330EE200A80ED040AED
:103D100010BD00002C000020F401002000409C4554
:103D20006F12833A000034430000B443000034C3F0
:103D3000104810B50E4901600321416000214FF485
:103D400000228160C0E903124FF440124261017603
:103D500041768176C176017701214177FDF7F0FA4E
:103D6000002803D0BDE81040FCF747BF10BD00009D
:103D7000006400405C000020094808B5016841F477
:103D8000001101600068002200F40010009011464C
:103D90000C20FEF7CBFABDE808400C20FEF794BAE1
:103DA0003038024070B586B014216846FCF705FB38
:103DB0001E480024016841F002010160016801F021
:103DC00002010591016841F008010160016801F0FC
:103DD00008010591016841F004010160016801F0EA
:103DE00004010591016841F080010160016801F062
:103DF00080010591016841F00101016000680C4EED
:103E000000F001004FF4E0550590002229463046AD
:103E1000FEF74EF901200095CDE9010469463046D0
:103E20000394FDF797FF06B070BD000030380240E4
:103E3000001C0240094810B5074901600421416097
:103E40004FF4FA718160FEF76FF9002803D0BDE8E6
:103E50001040FCF7D2BE10BD0030004084000020AE
:103E6000104810B50E4901604FF482714160002185
:103E70008160C1604FF400720161C0E90512302217
:103E8000C0E90721416281620A21C162FEF7AAFEF0
:103E9000002803D0BDE81040FCF7AFBE10BD000005
:103EA00000300140900000201CB500240E48009412
:103EB0000C49019401605321C0E9011440F2E7313B
:103EC0008461C160FFF7CEF908B1FCF796FE00945B
:103ED000694605480194FFF71DF9002801D0FCF759
:103EE0008CFE1CBD00100040E80000200E4810B5FC
:103EF0000C4901600D4941604FF4805181600021FF
:103F00004FF48062C0E903120422C0E90521C161B7
:103F1000FFF724FD002803D0BDE81040FCF76DBE7C
:103F200010BD00000048004030010020A0860100C4
:103F3000FEE7000001490020487070473000002073
:103F400030B4164C164A0023257E117E15488D424A
:103F500003D1647E557EAC4200D00370528C0124A4
:103F600002B10470057835B1012D11D151060BD481
:103F7000110607D40CE0032904D0012904D002293A
:103F800004D005E0437003E0447001E00221417079
:103F900030BC282202490148FCF7DDB9E0020020CC
:103FA000B802002030000020FEE70000A0B1D0EDF4
:103FB000101AC0ED111A90ED0F1A80ED101AC0ED15
:103FC000060A80ED070A30EEC00A80ED0F0A01787C
:103FD00029B101293BD078E09FED3D0A7047D0ED33
:103FE000010A60EE801AC0ED091AD0ED0A0A90EDC0
:103FF000022A42EE000A30EE410AC0ED0A0A90EDB4
:104000000D2A80ED0E2A90ED0C2A80ED0D2A80ED10
:104010000C0A90ED031A21EE001A80ED0B1A90EDB8
:10402000050AF4EEC00AF1EE10FA09DCB1EE400A1E
:10403000F4EEC00AF1EE10FA02D390ED0A0A01E0A4
:1040400080ED0A0A31EE800A30EE010A2BE070EEB4
:10405000410A90ED012A20EE822A80ED092AD0ED56
:10406000020A60EE800AC0ED0A0AD0ED0D2A72EE57
:10407000200AC0ED0E2AD0ED0C2AC0ED0D2AF0EE7C
:10408000002A01EE620A30EE210A80ED0C0A90ED62
:10409000031A21EE000A80ED0B0A30EE800AD0ED03
:1040A000080A30EE200A80ED080AD0ED040AB4EECA
:1040B000E00AF1EE10FA06DCF1EE600AB4EEE00A76
:1040C000F1EE10FA01D2C0ED080A90ED080A70472F
:1040D0000000000010B5114C9FED112ADFED111A00
:1040E000002300BF03EBC30004EBC000F0EE420A64
:1040F000B0EE610A0C4A002100F01AF85B1CDBB23A
:10410000042BEFD3084ABDE810400C32F0EE420A0F
:10411000B0EE610A0021054800F00AB8080300204B
:1041200000409C4500401C4644000020280400201C
:10413000002828D0002A26D0017092ED001A80EDC8
:10414000011A92ED011A80ED021A92ED021A80ED29
:10415000031A80ED040A9FED0C0AC0ED050A80EDFC
:104160000E0A80ED0D0A80ED0C0A80ED080A80ED44
:104170000B0A80ED0A0A80ED090A80ED110A80ED34
:10418000100A80ED0F0A7047000000007047000021
:1041900070B505460C463848FEF736F8207850B919
:1041A000607840B9A07830B9E07820B9207910B9AA
:1041B000607900285ED02088C0F30A03A3F58063ED
:1041C00025F8103F6078A17800EE103AC00840EA68
:1041D0004110C0F30A00F8EEC00AA0F580609FED20
:1041E000270A6880A17880EE801AE278890941EA7E
:1041F0008201227900EE900A41EA8221C1F30A018C
:10420000A1F58061A98022796679520842EAC61236
:10421000C2F30A02F8EEE00AA2F58062EA8005ED38
:10422000011A80EE801A00EE901AF8EEE00A05ED11
:10423000021A80EE801A00EE902AF8EEE00A05EDF0
:10424000031A80EE801A05ED041A6079800928723D
:104250006079C0F301106872E08868812089A881C4
:104260006089E881207B2874607B6874E0896882BB
:10427000208AA88270BD0000840000200000254430
:1042800038B504461248134B0068B0FBF3F04FF406
:104290007A73584300906068B0F5827F0DD10B4669
:1042A000009200228021204600F016F870B1606D67
:1042B00040F020006065032038BD009830B1401EFA
:1042C000009020688068C0430006F6D5002038BD05
:1042D0001000002000366E012DE9F8431E4691467D
:1042E00088460446089DFDF719FF401B351AFDF767
:1042F00015FF074625480068C0F3CB30684338E017
:10430000701C37D0FDF70AFFC01BA84203D215B1BD
:10431000009860B32CE02068416821F0E001416022
:104320006068B0F5827F0BD1A068B0F5004F02D075
:10433000B0F5806F04D12068016821F04001016070
:10434000A06AB0F5005F09D12068016821F400512E
:1043500001602068016841F400510160012084F887
:104360005100002084F850000320BDE8F8830025A8
:10437000401E00902068816838EA010004D00021C6
:104380004945BDD10020F0E70121F9E710000020E8
:104390007047FDF73FBF000030B593B0302168464D
:1043A000FCF70BF814210CA8FCF707F81F480025B0
:1043B000016841F080510160006800F08050119068
:1043C0001B48016841F4804101600068022400F448
:1043D00080401190092000904FF48030019001201E
:1043E000CDE905048005079006200890A820CDE9B6
:1043F000090404200B906846FEF7A0F908B172B6D4
:10440000FEE70CA90F2081E831004FF4A0500F9077
:104410004FF48050109005210CA8FEF717F80028E3
:1044200001D072B6FEE713B030BD00004038024044
:10443000007000400248016841F47001016070475B
:1044400088ED00E00148FFF77CB80000E80000209C
:10445000F0B50268254C264D264E274F274B4FF0CE
:10446000804CA04209D0604507D0A84205D0B04298
:1044700003D0B84201D0984204D122F0700E4A68AD
:1044800042EA0E02A0421BD0604519D0A84217D0C4
:10449000B04215D0B84213D0984211D0184DA8425E
:1044A0000ED0184DA8420BD0174DA84208D0174D7A
:1044B000A84205D0164DA84202D0164DA84203D1FD
:1044C00022F44075CA682A434D6922F080022A43CB
:1044D00002608A68C2620A688262A04201D0984281
:1044E00001D10969016301214161F0BD0000014072
:1044F0000004004000080040000C0040000401409F
:1045000000400140004401400048014000180040C4
:10451000001C00400020004010B5806B0021C185C8
:10452000C184FFF7E5F810BD70B5846B2068406961
:1045300094F83D10C0F3C0100025212904D118B112
:10454000E584204600F08AF82068406994F83E101F
:10455000C0F38010222904D118B1E585204600F06F
:1045600056F8206C40F0100020642046FFF7C0F899
:1045700070BD10B50146806B09680968C9052FD464
:104580000021C18501680C3151E8002F22F48072AE
:1045900041E80023002BF5D10168143151E8002FC8
:1045A00022F0010241E80023002BF5D1016814310B
:1045B00051E8002F22F0400241E80023002BF5D102
:1045C000202180F83E10016B012909D101680C31CE
:1045D00051E8002F22F0100241E80023002BF5D112
:1045E000016B012902D0FFF7D1FA10BD818DFFF7D1
:1045F0007EF810BD10B5806B016B012902D0FFF76A
:10460000D3FA10BD818D4908FFF771F810BD01681C
:104610000C3151E8002F22F4907241E80023002B66
:10462000F5D10168143151E8002F22F0010241E870
:104630000023002BF5D1016B012909D101680C3150
:1046400051E8002F22F0100241E80023002BF5D1A1
:10465000202180F83E1000210163704701680C3171
:1046600051E8002F22F0C00241E80023002BF5D1D1
:10467000202180F83D10704708B590F83E1022299F
:1046800001D0022008BD82684FF480539A4201D1C4
:10469000016921B1816A9A421BD04AB10AE00268DD
:1046A000816A5268C2F308020A80816A891C08E0A4
:1046B000026972B10268526802F07F020A70816A70
:1046C000491C8162C18D491E0904090CC18503D0B2
:1046D00019E002685268F1E70168CA6822F0200216
:1046E000CA600168CA6822F48072CA6001684A69B7
:1046F00022F001024A61202180F83E10016B01295D
:1047000003D0FFF743FA002008BD002101630168D0
:104710000C3151E8002F22F0100241E80023002B59
:10472000F5D101680A68D20602D50A684968009185
:10473000818DFEF7DCFFE6E770B50446406854491A
:10474000884204D940F6566152A000F024F9E0688E
:1047500038B1B0F5005F04D040F657614DA000F0CD
:104760001AF9206950B1B0F5806F07D0B0F5C06F6D
:1047700004D040F6586147A000F00DF960694FF68B
:10478000F371084200D120B940F6596141A000F010
:1047900002F920680169E26821F440511143016186
:1047A0002169A068E26908436169114322680843EE
:1047B000D16849F20C6399430143D1602068416993
:1047C000A26921F440711143416141492068884246
:1047D00002D04049884202D1FDF76EFF01E0FDF7AB
:1047E0005BFFE2690023192164253226B2F5004FF0
:1047F000626828D0A0FB0101930F9200FBF734FD03
:104800000146B0FBF5F06FF01802504301EB800059
:1048100006EB0010B0FBF5F000F0F002B1FBF5F094
:1048200002EB0012B1FBF5F06FF01803584301EBF7
:10483000800006EB0010B0FBF5F000F00F002168DF
:104840001044886070BDA0FB010192185B41FBF72A
:104850000BFD0146B0FBF5F00201B1FBF5F06FF086
:104860001803584301EB800006EBC000B0FBF5F0E5
:1048700000F0F80002EB4002B1FBF5F0584301EB09
:10488000800006EBC000B0FBF5F000F00700D6E7B3
:10489000A037A0002E2E2F447269766572732F53B5
:1048A000544D3332463478785F48414C5F447269E6
:1048B0007665722F5372632F73746D33326634785A
:1048C000785F68616C5F756172742E630000000030
:1048D000001001400014014038B581628285002536
:1048E000134604460564222084F83E00A26B1B4850
:1048F000D063A26B1A481064A26B1A48D064A06BF4
:104900000A4605652168A06B091DFDF7ADF9206811
:1049100001684068009084F83C5020680C3050E8F2
:10492000001F41F4807140E80012002AF5D1206890
:10493000143050E8001F41F0010140E80012002A45
:10494000F5D12068143050E8001F41F0400140E8E4
:104950000012002AF5D1002038BD00007345000880
:10496000F5450008294500080148FEF7C3BE0000D0
:1049700030010020FEE70907090E002804DB00F1E2
:10498000E02080F80014704700F00F0000F1E020F4
:1049900080F8141D7047704770B54FF0E024002276
:1049A0006569A8214843A169A3698B42FCD002D262
:1049B000A1EB030102E0A5EB030631440A441946CA
:1049C0008242F1D370BDFDF72DFCFFF7E5FCFFF748
:1049D000E9F9FFF7D1F9FFF7ABF9FFF765FAFFF750
:1049E00085FAFFF727FAFFF73BFAFCF7FBF8FFF72A
:1049F00071FBFBF73FFEFBF751FFFFF79BFAFCF75C
:104A000083F8FEE710B504464088A0800888DFEDF3
:104A10001E0A40BA00B26080498849BA09B200EE65
:104A2000101A2180B8EEC00A20EE200ADFED170A26
:104A300080EE201A84ED031A00F0C2F99FED141BDA
:104A400053EC112B00F064F89FED131B53EC112B6A
:104A500000F0CEF900F02AF800EE100A104910EE2E
:104A6000100ADFED100A84ED020A884202DD30EE02
:104A7000600A06E010EE100A0B49884203D930EEB6
:104A8000200A84ED020A10BDDA0FC940000070420E
:104A90000000000000FFBF400000000000807640E2
:104AA000000034430000B443000034C321F000424E
:104AB000A2F16052B2F5801F01F0004328BFD2F18D
:104AC0007F6C0BD95FEA001C43EAC20242EB5070D4
:104AD00018BF704728BF20F001007047B2F5801F53
:104AE000BCBF184670474FEA410C1CF5001F02D2AC
:104AF000084600F080BA70B500F024FA0000008982
:104B0000FFF7F6BF4FF00040A0F5800070470000AF
:104B10002DE9C04130B4DFF8A0C23CEA111418BF3F
:104B20003CEA131400F0EC8081EA03051CEA11143E
:104B300044EAD57418BF1CEA131500F0C780A4EB33
:104B400005044FF0004545EAC12145EAC32341EA87
:104B5000505143EA525304F17F74994204F50034F2
:104B60004FEAC0204FEAC22208BF904200F09C806A
:104B70004FEA13650FF24016765D4FEA134506FBC8
:104B800005F7C7F1807706FB07F74FEAD737A7FB92
:104B900003687642C8F58038A7FB06CE38BFA8F177
:104BA000010807FB08E64FF0000EA6FB028CE6FBAF
:104BB00003CEDCF1000CCEF1004E38BFAEF1010E99
:104BC000A6FB0C584FF000074FF00005E6FB0E87E0
:104BD000A1FB08C6A0FB07CE16EB0E0645F10005AB
:104BE000E1FB076515F1E04E7EBFA4F580345FEA76
:104BF00046066D4116F1800745F100054FEA17277B
:104C00004FEA066647EA0567A6F1DE46B6F1805F21
:104C10004FEA15251FD9384624F0010C05EBC47165
:104C2000BCF1FE6F01EB0C1102D8F0BCBDE80081B5
:104C300024425CBF01F5801E9EEAC47F02D4F0BC12
:104C4000BDE80081244238D4F0BCA1F1C041BDE8E8
:104C5000004100F0C5B94FEAD22242EA43524FEA7E
:104C6000D323A7FB02864FEAD02040EA415007FB3E
:104C700003661EEA0E0F4FEAD12105FB026658BFFC
:104C8000A6EB0056B6EB00564FEA520E4EEAC37E34
:104C900018EB0E0E56EB530EBDD518EB02085E4115
:104CA0007F1C55F10005B6E74FF480154FF0000763
:104CB0004FF000064FF00008ADE7F0BC4FF00000E9
:104CC00001F1C04101F00041BDE8008111EA0C1F73
:104CD0000CEA131500D00CE013EA0C1F00F025803D
:104CE0004FF00000F0BC81EA030101F00041BDE893
:104CF0000081F0BCBDE8004181EA030100F070B919
:104D0000F0BCBDE8004170B500F01CF9097EFC3E26
:104D100000F007B881EA03014FF0000001F0004104
:104D2000704781EA030100F05BB9F0BCBDE80041C7
:104D30004FF0000021497047FFFDFBF9F7F5F4F251
:104D4000F0EEEDEBE9E8E6E4E3E1E0DEDDDBDAD826
:104D5000D7D5D4D3D1D0CFCDCCCBCAC8C7C6C5C484
:104D6000C2C1C0BFBEBDBCBBBAB9B8B7B6B5B4B39B
:104D7000B2B1B0AFAEADACABAAA9A8A8A7A6A5A486
:104D8000A3A3A2A1A09F9F9E9D9C9C9B9A9999984A
:104D90009797969595949393929191908F8F8E8EED
:104DA0008D8C8C8B8B8A898988888787868585847A
:104DB00084838382828181800000FF070000F87F66
:104DC00010F0004248BF4042B0FA80F310FA03F1FD
:104DD0000AD0C3F11D0303F580634FEA415002EB93
:104DE000035202EBD12170474FF0000070470000E2
:104DF000DFF848C170B51CEA111E1EBF1CEA13156E
:104E00009EEA0C0F95EA0C0F00F06F8081EA030414
:104E100023EA4C134EEAD47E21EA4C1141F480116E
:104E200043F48013AE44A1FB024CA0FB0365AEF13A
:104E30007F7E361955EB0C05A1FB034C4CF10003AA
:104E4000A0FB021C16EB0C06654153F1000309425E
:104E500018BF46F0010613F4007F0BD14FEA03316F
:104E60004FEA0530340341EA155140EA16506FF01D
:104E700003020AE04FEAC3214FEAC520F40241EAE7
:104E8000555140EA56506FF0020202EB2E4201EB00
:104E9000025585EACE710AD05FEA440C18BF24F0AF
:104EA000004450F1000041F1000120EAD47040F2CA
:104EB000FE7C624500D270BDA84214BF4FF0804412
:104EC0004FF04044002E08BF0024BEF1806FA8BF01
:104ED000A1F1C041BDE8704080F282804FF0000037
:104EE00001F1C04101F0004170479EEA0C0F0CEA4D
:104EF000131518BF95EA0C0F06D04FF0000081EA99
:104F0000030E0EF0004170BD00F01CF88900013E58
:104F100000F007B800F009B84FEA430C5FEA5C5CA8
:104F200008D081EA030100F05BB84FEA410C5FEA68
:104F30005C5CF6D14FF00000014970470000FF07AC
:104F40000000F87F0EF1020E2EF0030E5EF8046BE7
:104F5000364205D4012A43EB030515F5001F12D88C
:104F6000012841EB010C1CF5001F0CD80ED14FEAB3
:104F7000D17C15F5001F0CEB4C0C0CF1020C08BF9A
:104F80004CEBD37C04E04FF0080C01E04FEAD37CFB
:104F90000CEB4C0526FA05F606F00706B6F1040CF4
:104FA00006D20EEB860CBDE870404CF0010C604759
:104FB000DFE80CF0090B02024FF000414FF0000057
:104FC000A1F5002170BD19461046012851EB0104DE
:104FD00018BFD4F5001484BF002001F0004170BD5B
:104FE0000808A0F500114FEA310170474FF04070FA
:104FF000E1EE100A7047FF2141EAD050C00570472A
:105000000006101600061016000000000000000048
:10501000010203040607080900000000010203045E
:1050200040AC037D04014103057C00026D0D026D5F
:10503000090200007D04017C000240AB0341000531
:1050400053080658040700000F00081082091100D9
:105050000A15800B16000C18010D00007C5000088A
:10506000000000205C000000C4010008D8500008C7
:105070005C000020740A0000E0010008000000004D
:105080000100000010000000000000000024F400F7
:105090000000000000000000000000000000000010
:1050A0000000000000000000000000000000000000
:1050B00000000000000000000000000000000000F0
:1050C0000000404000000000000000000000004020
:0850D0000000000000000000D8
:040000050800018965
:00000001FF
